:1001250008081C161D011D161C000810070D1710C8
:10013500170D070008181F1F120409101F000820BB
:100145001F1F090412011F00082804040404150ECA
:1001550004000830040E15040404040008380102E4
:10016500040810111F000840001F1111111F000085
:100240001202E2120003E4FF1202D67F011202D66C
:100250007F201202D67F021202D67F031202D67FBF
:10026000201202D67F041202D67F051202D67F200A
:0F0270001202D67F061202D67F071202D680FE38
:0A02E200E4F580F590F5A0F5B022D8
:09027F008FA043B0027F967E00BF
:10028800E4FDFCC3ED9FEE6480F8EC6480985007B1
:070298000DBD00010C80EC1C
:01029F00223C
:0C02D60043B00112027F53B0FD02028809
:0702B5001202887F307E0079
:0C02BC0053B0FE12027F53B0FD02028816
:100003007F987E3A1202B57F947E111202B57F2C3F
:100013007E011202887F301E1202BC7F8A7E02128A
:1000230002887F387E001202BC7F0C7E001202BC65
:100033007F017E001202BC7F067E001202BC7B00A1
:100043007A007908E4FF1201FF7B007A0079107FC0
:10005300011201FF7B007A0079187F021201FF7BF6
:10006300007A0079207F031201FF7B007A00792850
:100073007F041201FF7B007A0079307F051201FFB4
:100083007B007A0079387F061201FF7B007A0079C2
:06009300407F070201FF9F
:0E02C8007F027E001202BC7FDC7E05020288EF
:0601BC008B488A49894AC4
:1001C200E4F54BF54CAB48AA49A94A1202A0C3E593
:1001D2004C9FEE6480F8E54B648098501DAB48AAB2
:1001E20049A94A854C82854B83120176FF1202D6B9
:0D01F200054CE54C70CF054B80CB0202C8D8
:0601FF008B4D8A4E894F72
:10020500EFC39408502EEF75F008A42440FFE435A1
:10021500F0FE1202BCE4F550AB4DAA4EA94F855035
:1002250082758300120176FF1202D60550E550C390
:0B023500940840E47F807E000202BCC1
:0300000002009962
:0C009900787FE4F6D8FD7581500200E08D
:10017600BB010CE58229F582E5833AF583E022503E
:1001860006E92582F8E622BBFE06E92582F8E22288
:0D019600E58229F582E5833AF583E49322A2
:1002A000E4FFFE1201A3600C0FEF70010E09E9706C
:0502B000F20A80EF22BC
:1000A500020240E493A3F8E493A34003F68001F22F
:1000B50008DFF48029E493A3F85407240CC8C3335C
:1000C500C4540F4420C8834004F456800146F6DF2B
:1000D500E4800B0102040810204080900125E47E95
:1000E500019360BCA3FF543F30E509541FFEE49320
:1000F500A360010ECF54C025E060A840B8E493A3E7
:10010500FAE493A3F8E493A3C8C582C8CAC583CA11
:10011500F0A3C8C582C8CAC583CADFE9DEE780BEC9
:010175000089
:1001A300BB010689828A83E0225002E722BBFE025A
:0901B300E32289828A83E493228D
:00000001FF
