:0D00C9007FFA7E001200D6D2A17FFA7E00E1
:1000D6007C007D0F120003E4FDFCC3ED9FEC9E50F7
:0800E600070DBD00010C80F2C2
:0100EE0022EF
:05017600D2A0D2A1227D
:10010A00D2A1D2A07FF47E011200D6C2A07FF47ED3
:04011A00010200D608
:10011E00C2A11200D2D2A01200C9C2A07FFA7E00E4
:03012E000200D6F6
:10013100C2A11200D2C2A01200C9D2A07FFA7E00D1
:030141000200D6E3
:10014400C2A11200D2C2A01200D2D2A17FF47E01B9
:030154000200D6D0
:10015700C2A11200D2D2A01200D2D2A17FF47E0196
:030167000200D6BD
:02005800AB07F4
:10005A00E4FAC2A11200D2EBA802088002C333D884
:10006A00FC30E704D2A08002C2A01200D2D2A17F43
:10007A00F47E011200D60ABA08D8C2A1D2A07FF42F
:10008A007E011200D6D2A17FF47E011200D6A2A070
:01009A002243
:10009B00E4FBFAC2A1D2A07FF47E011200CDA2A094
:1000AB00E433F9C374079AFFE9A807088002C33346
:0D00BB00D8FC42031200D20ABA08D8AF03E5
:0100C8002215
:1000EF00E4F50812017612010A7FA01200581200DF
:0B00FF009B8F0812014412013180FEAB
:0300000002016A90
:0C016A00787FE4F6D8FD7581080200EFF4
:10000300BC000BBE0029EF8DF084FFADF022E4CCE1
:10001300F875F008EF2FFFEE33FEEC33FCEE9DECAA
:10002300984005FCEE9DFE0FD5F0E9E4CEFD22EDF0
:10003300F8F5F0EE8420D21CFEADF075F008EF2F3A
:10004300FFED33FD4007985006D5F0F222C398FD2B
:050053000FD5F0EA22C8
:00000001FF
