:0604920053A00F43A0304F
:10049800D2917FFA7E0012043CC2917FFA7E00025C
:0204A800043C12
:100475008F11D29053A00FE51154F042A0120498A9
:0D04850053A00FE511C454F042A0020498EA
:100455008E118F12C29053A00FE51254F042A012D4
:10046500049853A00FAF12EFC454F042A0020498B1
:1002AA00C290C2917F987E3A12043C1204927F94C3
:1002BA007E1112043C1204927F2C7E0112043C121D
:1002CA0004927F8A7E0212043C53A00F43A020129C
:1002DA0004987F8A7E0212043C7F287E001204550D
:1002EA007F0C7E001204557F017E001204557F06A2
:0502FA007E0002045526
:0805160053616565000000005F
:10022D00E4F50878097C00FD7BFF7A057916FE7FE1
:10023D00041200D3780D7C007D007BFF7A05791ABE
:10024D007E007F041200D31202AA12051E7D647F68
:10025D00017E001204087F017E001203528F087B7D
:10026D00007A0079097516047F207E001202FF7B4B
:10027D00007A00790D7516007517047F207E001227
:10028D0001AFAF0D120475AF0E120475AF0F12044E
:0D029D0075AF10120475AF0812047580FED5
:100408008E118F128D1380077FA01203975005124B
:1004180004AA80F4E511FF120397AF12120397AFF5
:07042800131203970204D137
:040352008E118F1267
:10035600E4F51380077FA012039750051204AA80C4
:10036600F4E511FF120397AF121203971204BE7F32
:10037600A11203971203DA8F131204F7C2A07FF4B7
:100386007E0112043CD2A07FF47E0112043CAF131E
:010396002244
:0A02FF008E118F128B138A148915DB
:1003090080077FA012039750051204AA80F4E51113
:10031900FF120397AF12120397E4F517F518C3E517
:10032900189516E5179400501DAB13AA14A9158545
:1003390018828517831200F9FF1203970518E5182B
:0903490070DC051780D80204D114
:0A01AF008E118F128B138A1489152C
:1001B90080077FA012039750051204AA80F4E51165
:1001C900FF120397AF121203971204BE7FA1120305
:1001D900971203DAAB13AA14A915EF1201267518A1
:1001E90000751901C3E5199517E5189516502012E0
:1001F90004E41203DAAB13AA14A915851982851828
:1002090083EF1201380519E51970D9051880D5123F
:1002190004F7C2A07FF47E0112043CD2A07FF47ED1
:040229000102043C8E
:0D042F007FFA7E0012043CD2A17FFA7E000D
:10043C007C007D0F12015AE4FDFCC3ED9FEC9E5035
:08044C00070DBD00010C80F258
:010454002285
:05051E00D2A0D2A122D1
:1004AA00D2A1D2A07FF47E0112043CC2A07FF47EC6
:0404BA000102043CFB
:1004BE00C2A1120438D2A012042FC2A07FFA7E006D
:0304CE0002043CE9
:1004D100C2A1120438C2A012042FD2A07FFA7E005A
:0304E10002043CD6
:1004E400C2A1120438C2A0120438D2A17FF47E0142
:0304F40002043CC3
:1004F700C2A1120438D2A0120438D2A17FF47E011F
:0305070002043CAF
:02039700AB07B2
:10039900E4FAC2A1120438EBA802088002C333D8D8
:1003A900FC30E704D2A08002C2A0120438D2A17F97
:1003B900F47E0112043C0ABA08D8C2A1D2A07FF483
:1003C9007E0112043CD2A17FF47E0112043CA2A05A
:0103D9002201
:1003DA00E4FBFAC2A1D2A07FF47E01120433A2A0E8
:1003EA00E433F9C374079AFFE9A807088002C33304
:0D03FA00D8FC42031204380ABA08D8AF0339
:0104070022D2
:0300000002050AEC
:0C050A00787FE4F6D8FD75811902022DFF
:10000300E709F608DFFA8046E709F208DFFA803EDF
:1000130088828C83E709F0A3DFFA8032E309F608CC
:10002300DFFA8078E309F208DFFA807088828C8334
:10003300E309F0A3DFFA806489828A83E0A3F608E8
:10004300DFFA805889828A83E0A3F208DFFA804CC2
:1000530080D280FA80C680D4806980F28033801099
:1000630080A680EA809A80A880DA80E280CA803302
:1000730089828A83ECFAE493A3C8C582C8CCC5837A
:10008300CCF0A3C8C582C8CCC583CCDFE9DEE7804A
:100093000D89828A83E493A3F608DFF9ECFAA9F0C9
:1000A300EDFB2289828A83ECFAE0A3C8C582C8CC1F
:1000B300C583CCF0A3C8C582C8CCC583CCDFEADE38
:1000C300E880DB89828A83E493A3F208DFF980CC9A
:1000D30088F0EF60010E4E60C388F0ED2402B40493
:1000E3000050B9F582EB2402B4040050AF2323453A
:0600F3008223900053730C
:1000F900BB010CE58229F582E5833AF583E02250BC
:1001090006E92582F8E622BBFE06E92582F8E22205
:0D011900E58229F582E5833AF583E493221F
:10012600BB010689828A83F0225002F722BBFE01B8
:02013600F322B2
:10013800F8BB010DE58229F582E5833AF583E8F0FD
:10014800225006E92582C8F622BBFE05E92582C8A9
:02015800F22291
:10015A00BC000BBE0029EF8DF084FFADF022E4CC89
:10016A00F875F008EF2FFFEE33FEEC33FCEE9DEC52
:10017A00984005FCEE9DFE0FD5F0E9E4CEFD22ED98
:10018A00F8F5F0EE8420D21CFEADF075F008EF2FE2
:10019A00FFED33FD4007985006D5F0F222C398FDD3
:0501AA000FD5F0EA2270
:00000001FF
