:1002C8000208000002100000020A0000020C0000F0
:0402D800020E000012
:1002A5001202FE1201531202DDE5114510700FAB6B
:1002B5000BAA0AAD0DAC0CAF0FAE0E12009A1201CF
:0302C500A680E62A
:0A02FE00E4F580F590F5A0F5B022BC
:1002DD005389F0438902758C05758A05D2A9D2AF71
:0302ED00D28C228E
:03000B00020223CB
:10022300C0E0C0D074FA2509F509E43508F508E5FE
:1002330009B4E813E508B4030E0511E511700205CE
:0E02430010750800750900C28DD0D0D0E032D1
:1001A600E511B4E812E510B4030D050BE50B70027A
:1001B600050AE4F510F511E50B643C450A700D05DA
:1001C6000DE50D7002050CE4F50AF50BE50D643C32
:1001D600450C700D050FE50F7002050EE4F50CF5E4
:0E01E6000DE50F6418450E7004F50EF50F229E
:10009A008E128F138C148D158A168B171202F0AEDE
:1000AA0012AF131201F4AE12AF137C007D0A1200D4
:1000BA00FEED2430FF1201FF7F3A1201FFAE14AFAA
:1000CA00151201F4AE14AF157C007D0A1200FEED84
:1000DA002430FF1201FF7F3A1201FFAE16AF17124A
:1000EA0001F4AE16AF177C007D0A1200FEED243033
:0400FA00FF0201FF01
:1002510012026553A00F43A030D2A37E007F9612F5
:040261000265C2A3CD
:10026500E4FDFCC3ED9FEE6480F8EC6480985007D4
:070275000DBD00010C80EC3F
:01027C00225F
:0B01F4007C007D0A1200FEEF2430FFAB
:1001FF00AB07D2A253A00FEB54F042A012025A53F6
:10020F00A00FEBC454F042A0D2A37F96120265C296
:04021F00A3020265CF
:10027D00AB07AA06C2A253A00FEB54F042A0120284
:10028D005A53A00FAF03EFC454F042A0D2A37F96F0
:08029D00120265C2A302026512
:100153007F987E3A1202517F947E111202517F2CB6
:100163000E12026553A00F43A030D2A31E12025EEB
:100173007F8A7E0212026553A00F43A02012025A07
:100183007F8A7E021202657F287E0012027D7F0C29
:100193007E0012027D7F017E0012027D7F067E00BB
:0301A30002027DD8
:0E02F0007F017E0012027D7FE87E0302026520
:0300000002000EED
:0C000E00787FE4F6D8FD758117020055DC
:1000FE00BC000BBE0029EF8DF084FFADF022E4CCE6
:10010E00F875F008EF2FFFEE33FEEC33FCEE9DECAE
:10011E00984005FCEE9DFE0FD5F0E9E4CEFD22EDF4
:10012E00F8F5F0EE8420D21CFEADF075F008EF2F3E
:10013E00FFED33FD4007985006D5F0F222C398FD2F
:05014E000FD5F0EA22CC
:10001A000202A5E493A3F8E493A34003F68001F255
:10002A0008DFF48029E493A3F85407240CC8C333E7
:10003A00C4540F4420C8834004F456800146F6DFB6
:10004A00E4800B01020408102040809002C8E47E7C
:10005A00019360BCA3FF543F30E509541FFEE493AB
:10006A00A360010ECF54C025E060A840B8E493A372
:10007A00FAE493A3F8E493A3C8C582C8CAC583CA9D
:10008A00F0A3C8C582C8CAC583CADFE9DEE780BE55
:0102DC000021
:00000001FF
