:0308DB0001080011
:1008B4001208CBD2A07FE87E0312088CC2A07FE886
:0708C4007E0312088C80EC9A
:0A08CB00E4F580F590F5A0F5B022E9
:10088C00AD07AC065389F0438901C374FF9CF58C0A
:10089C00C374FF9D2426F58AD2A9D2AFE4F508D201
:0808AC008CE50860FCC28C22FF
:03000B000208D513
:0608D500750801C28D321E
:03000000020800F3
:0C080000787FE4F6D8FD758108020847F7
:10080C000208B4E493A3F8E493A34003F68001F246
:10081C0008DFF48029E493A3F85407240CC8C333ED
:10082C00C4540F4420C8834004F456800146F6DFBC
:10083C00E4800B01020408102040809008DBE47E69
:10084C00019360BCA3FF543F30E509541FFEE493B1
:10085C00A360010ECF54C025E060A840B8E493A378
:10086C00FAE493A3F8E493A3C8C582C8CAC583CAA3
:10087C00F0A3C8C582C8CAC583CADFE9DEE780BE5B
:0108DE000019
:00000001FF
