:07000300010A0002080000E1
:0B01010012010C120116750A7F80FE2F
:0A010C00E4F580F590F5A0F5B022AF
:1000EF005389F0438901E4F58CF58AD2A9D2AFD2B6
:0200FF008C2251
:06011600E4F50A0200EF0F
:03000B0002009A56
:10009A00C0E0C0F0C0D075D000C006C007C28C3026
:1000AA00A017C2A0C374FF950AFFE49400FEEF25CF
:1000BA00E0F509EE33F508800FD2A0E50A75F002E3
:1000CA00A485F008F509E508FFC374FF9FF58CC302
:1000DA0074FF9509F58AC28DD28CD007D006D0D08C
:0500EA00D0F0D0E0326F
:0300000002000EED
:0C000E00787FE4F6D8FD75810A020055E9
:10001A00020101E493A3F8E493A34003F68001F2FA
:10002A0008DFF48029E493A3F85407240CC8C333E7
:10003A00C4540F4420C8834004F456800146F6DFB6
:10004A00E4800B0102040810204080900003E47E43
:10005A00019360BCA3FF543F30E509541FFEE493AB
:10006A00A360010ECF54C025E060A840B8E493A372
:10007A00FAE493A3F8E493A3C8C582C8CAC583CA9D
:10008A00F0A3C8C582C8CAC583CADFE9DEE780BE55
:01000A0000F5
:00000001FF
