:1000030075083012016DAF081200A97F307E75129A
:100013000149E508120123004E30005331005832E4
:10002300005D33006234006735006C3600713700C1
:100033007638007B39008041008542008B43009174
:1000430044009745009D46000000A375083180B623
:1000530075083280B175083380AC75083480A77594
:10006300083580A2750836809D7508378098750815
:10007300388093750839808E7508418089750842E8
:100083008084750843020009750844020009750855
:100093004502000975084602000975083002000987
:0600A3007508300200099F
:0A016D00E4F580F590F5A0F5B0224E
:10014900E4FDFCC3ED9FEE6480F8EC6480985007F1
:070159000DBD00010C80EC5C
:01016000227C
:1000A900EF12012300E13000E33100E73200EB33C6
:1000B90000EF3400F33500F73600FB3700FF380155
:1000C9000339010741010B42010F43011344011791
:1000D90045011B46000000E1803C75A0062275A081
:1000E9005B2275A04F2275A0662275A06D2275A0AE
:1000F9007D2275A0072275A07F2275A06F2275A0A9
:10010900772275A07C2275A0392275A05E2275A080
:0A011900792275A0712275A03F2223
:0300000002016199
:0C016100787FE4F6D8FD758108020003E9
:10012300D083D082F8E4937012740193700DA3A36B
:1001330093F8740193F5828883E47374029368607F
:06014300EFA3A3A380DF7F
:00000001FF
