:1004680057726F6E6720496E7075740057726F6EA1
:0B047800672046756E6374696F6E00AC
:1001EF00E4F509F50A750B2BF50CF50D1204DA126F
:1001FF0003211204E58F08120483AF081204AEAF77
:10020F00081202B78E098F0AE50A640D450960E2EC
:10021F001204E58F081204AEAF081203F38F0BE53B
:10022F000B646560CD1204E58F081204AEAF08129F
:10023F0002B78E0C8F0DE50D640D450C60B41204E2
:10024F00E58F081204AEE508643D7048E50B24D332
:10025F00601724FE602D24B7601C244D7094E50AAE
:10026F00250DFFE509350C800AC3E50A950DFFE55D
:10027F0009950CFE8018AC0CAD0DAE09AF0A12003B
:10028F0030800BAC0CAD0DAE09AF0A120042120359
:10029F0069020201E508B44306120483020201E475
:0802AF00FFFE1204250202010A
:0B04DA00E4F5807590F0F5A0F5B0226D
:04044C007F107E2778
:10045000E4FDFCC3ED9FEE6480F8EC6480985007E7
:070460000DBD00010C80EC52
:010467002272
:1004AE00D2B78FA0D2B67F967E00120450C2B6028B
:0204BE000450E8
:040483007F017E0077
:10048700C2B78FA0D2B67F967E00120450C2B602C2
:0204970004500F
:100321007F987E3A1204507F307E001204877F94BA
:100331007E111204507F307E001204877F2C7E01D3
:100341001204507F301E1204877F8A7E02120450ED
:100351007F387E001204877F0C7E0012048712040E
:08036100837F067E0002048781
:0E04C0007F027E001204877FDC7E050204505E
:0603B0008B0F8A10891179
:1003B600E4F512F513AB0FAA10A911120499C3E5BF
:1003C600139FEE6480F8E512648098501DAB0FAA67
:1003D60010A911851382851283120003FF1204AE41
:0D03E6000513E51370CF051280CB0204C093
:10010C00C290D291D292D29320940912044C309482
:10011C00FD7F372220950912044C3095FD7F382243
:10012C0020960912044C3096FD7F39222097091233
:10013C00044C3097FD7F2F22D290C291D292D29351
:10014C0020940912044C3094FD7F3422209509121E
:10015C00044C3095FD7F352220960912044C3096C4
:10016C00FD7F362220970912044C3097FD7F7822B0
:10017C00D290D291C292D29320940912044C309412
:10018C00FD7F312220950912044C3095FD7F3222DF
:10019C0020960912044C3096FD7F332220970912C9
:1001AC00044C3097FD7F2D22D290D291D292C293E3
:1001BC0020940912044C3094FD7F4322209509129F
:1001CC00044C3095FD7F302220960912044C309659
:1001DC00FD7F3D2220970912044C3097FD7F2B2286
:0301EC007F6E2201
:0A04E5007F6EBF6E0512010C80F857
:0104EF0022EA
:1002B700EF12007802E03002E43102E93202EE3355
:1002C70002F33402F83502FD360302370307380319
:1002D7000C3903114300000316E4FEFF227E007F62
:1002E70001227E007F02227E007F03227E007F04A0
:1002F700227E007F05227E007F06227E007F072266
:100307007E007F08227E007F09221204838006E494
:0A031700FFFE1204257E007F0D2278
:1003F3008F0EE50EB443061204837F6522E50E6477
:100403002B601CE50E642D6016E50E64786010E524
:100413000E642F600A7F017E001204257F6522AFE0
:020423000E22A7
:10042500AB07AA06120483AE02AF03EA7005EF1408
:1004350060030480087BFF7A04797480067BFF7A69
:070445000479681203B022E4
:04036900AB07AA062E
:10036D00E4F50EF9C3EA6480948050107CFF7DFFA4
:10037D00120030AA06AB077F2D1204AE7C007D0A59
:10038D00AF03AE02120042A907E960062430FF1246
:10039D0004AEE975F00AA4FEC3EB9EF50E2430FF02
:0303AD000204AE99
:030000000204CE29
:0C04CE00787FE4F6D8FD7581130201EF81
:10000300BB010CE58229F582E5833AF583E02250B2
:1000130006E92582F8E622BBFE06E92582F8E222FC
:0D002300E58229F582E5833AF583E4932216
:10003000EF8DF0A4A8F0CF8CF0A428CE8DF0A42EE4
:02004000FE229E
:10004200C2D5EC30E709B2D5E4C39DFDE49CFCEED9
:1000520030E715B2D5E4C39FFFE49EFE1200B7C39A
:10006200E49DFDE49CFC80031200B730D507C3E495
:060072009FFFE49EFE2248
:10007800D083D082F8E4937012740193700DA3A317
:1000880093F8740193F5828883E47374029368602B
:06009800EFA3A3A380DF2B
:10049900E4FFFE12009E600C0FEF70010E09E97077
:0504A900F20A80EF22C1
:10009E00BB010689828A83E0225002E722BBFE0260
:0900AE00E32289828A83E4932293
:1000B700BC000BBE0029EF8DF084FFADF022E4CC2D
:1000C700F875F008EF2FFFEE33FEEC33FCEE9DECF6
:1000D700984005FCEE9DFE0FD5F0E9E4CEFD22ED3C
:1000E700F8F5F0EE8420D21CFEADF075F008EF2F86
:1000F700FFED33FD4007985006D5F0F222C398FD77
:050107000FD5F0EA2213
:00000001FF
