:100003001200D312004A7F481200DD7F651200DD23
:100013007F6C1200DD7F6C1200DD7F6F1200DD7FCD
:10002300201200DD7F571200DD7F6F1200DD7F722B
:100033001200DD7F6C1200DD7F641200DD7F211270
:0700430000DD1200B980FE90
:0A00D300E4F580F590F5A0F5B022E9
:080088008FA0D2917F967E004B
:10009000E4FDFCC3ED9FEE6480F8EC6480985007AB
:0700A0000DBD00010C80EC16
:0100A7002236
:0A00DD00D290120088C29102009038
:0700A8001200907F307E0082
:0A00AF00C290120088C29102009076
:10004A007F987E3A1200A87F947E111200A87F2C16
:10005A007E011200907F301E1200AF7F8A7E02124C
:10006A0000907F387E001200AF7F0C7E001200AF36
:0E007A007F017E001200AF7F067E000200AF05
:0E00B9007F027E001200AF7FDC7E0502009009
:030000000200C734
:0C00C700787FE4F6D8FD75810702000385
:00000001FF
