:1004AC004D6F64652030206F7220313F00537461B2
:1004BC0072740051310051320051330057726F6E1B
:1004CC006720496E707574000957656C636F6D65B4
:1004DC0020746F205175697A2053686F77005765C7
:1004EC006C636F6D652E2E2E0054727920416761FE
:1004FC00696E2E2E2E00332C382C31352C32342CA8
:10050C0033352E2E2E003531202034382020343631
:10051C002020343200332C382C31352C32342C330F
:10052C00352E2E2E2020206F7074696F6E73206113
:10053C007265202831293531202028322934382081
:10054C002028332934362020283429343200362C04
:10055C0031342C31382C32382C33302E2E2E0033B3
:10056C003220203436202034322020323800362CF1
:10057C0031342C31382C32382C33302E2E2E202086
:10058C00206F7074696F6E73206172652028312939
:10059C003332202028322934362020283329343293
:1005AC002020283429323800342C20312C20302CB7
:1005BC0020312C20342E2E2E0031202020332020D0
:1005CC0020392020203000342C20312C20302C20BD
:1005DC00312C20342E2E2E2020206F7074696F6EDB
:1005EC00732061726520283129312020283229336B
:1005FC00202028332939202028342930002D312C73
:10060C0020342C20312C20362C20332E2E2E00384A
:10061C0020202031302020203520202037002D3183
:10062C002C20342C20312C20362C20332E2E2E2016
:10063C0020206F7074696F6E732061726520283191
:10064C002938202028322931302020283329352000
:10065C0020283429370031302C32312C33332C34D0
:10066C00362C36302E2E2E003838202020373320D2
:10067C002020363520202037350031302C32312CDB
:10068C0033332C34362C36302E2E2E2020206F7007
:10069C0074696F6E73206172652028312938382097
:1006AC00202832293733202028332936352020289A
:1006BC003429373500312D312B312D312B2E2E2E67
:1006CC00696E663D3F003020202031202020312FE4
:1006DC00322020202D3100312D312B312D312B2E7C
:1006EC002E2E696E663D3F2020206F7074696F6EF0
:1006FC00732061726520283129302020283229315D
:10070C002020283329312F3220202834292D310064
:10071C00416E737765723A200020207573657241C3
:10072C00207475726E00202075736572422074758A
:10073C00726E005572204D61726B732E2E2E002F2F
:10074C003135007573657241204D61726B733A00DF
:10075C007573657242204D61726B733A0050432081
:09076C004D61726B732E2E2E00FC
:10112300011230010C00010D00010E00010F00013E
:1011330010000111000213000D0215000002170038
:091143000002080000020A00008D
:1009C10012119112114D751265E4F50CF50DF50E2C
:1009D100F50FF510F511F51375140DF515F516F55F
:1009E10017F518F508F509F50AF50BE512643060FD
:1009F100047F0180027F00E512643160047E018082
:100A0100027E00EE5F604B1211A77BFF7A0479AC86
:100A11001210B612122D8F12E512643060047F019C
:100A210080027F00E512643160047E0180027E0055
:100A3100EE5F60B7E4FFFE121176121238E4FFFE9A
:100A41001211F41212137F307E751200071211A7D2
:100A510080991211A7E512B4310A7F0D12120B7F92
:100A61000A12120B7BFF7A0479B91210B6E512B49F
:100A710031097BFF7A0479B912101F7F307E75121C
:100A810000077F307E751200071211A71211A7E52A
:100A910012B4310A7F0D12120B7F0A12120B7BFF67
:100AA1007A0479BF1210B6E512B431097BFF7A04DA
:100AB10079BF12101F7F307E751200077F307E755F
:100AC1001200071211A7E512B4310A7F0D12120BA1
:100AD1007F0A12120B1207751200261211A7E512D6
:100AE100B4310A7F0D12120B7F0A12120B7BFF7AAF
:100AF1000479C21210B6E512B431097BFF7A047988
:100B0100C212101F7F307E751200077F307E751272
:100B110000071211A7E512B4310A7F0D12120B7FE3
:100B21000A12120B1207751200261211A7E512B450
:100B3100310A7F0D12120B7F0A12120B7BFF7A040E
:100B410079C51210B6E512B431097BFF7A0479C573
:100B510012101F7F307E751200077F307E751200E4
:100B6100071211A7E512B4310A7F0D12120B7F0A89
:0F0B710012120B120775120026120E600209C72E
:10119100E4F5807590F0F5A075B0031212211210DC
:0611A10068D2AFD2AC22BF
:040003007F107E27C5
:10000700E4FDFCC3ED9FEE6480F8EC648098500734
:070017000DBD00010C80EC9F
:01001E0022BF
:0610B0007BFF7A07791CAA
:0610B6008B1B8A1C891D42
:1010BC00E4F51EF51FAB1BAA1CA91D1211BDC3E53F
:1010CC001F9FEE6480F8E51E648098501DAB1BAA30
:1010DC001CA91D851F82851E83120FA6FF1211D21B
:0A10EC00051FE51F70CF051E80CB25
:0110F60022D7
:061019007BFF7A07791C41
:06101F008B1B8A1C891DD9
:10102500C2AFC2ACE4F51EF51FAB1BAA1CA91D126D
:1010350011BDC3E51F9FEE6480F8E51E64809850DE
:101045001DAB1BAA1CA91D851F82851E83120FA619
:10105500FF12120B051FE51F70CF051E80CBD2AF07
:02106500D2AC0B
:011067002266
:1011D200D2B78FA0D2B67F967E00120007C2B602A7
:0211E200000704
:0411A7007F017E0046
:1011AB00C2B78FA0D2B67F967E00120007C2B602DE
:0211BB0000072B
:101068007F987E3A1200077F307E001211AB7F9482
:101078007E111200077F307E001211AB7F2C7E019B
:101088001200077F301E1211AB7F8A7E0212000702
:101098007F387E001211AB7F0C7E001211AB12114B
:0810A800A77F067E000211ABD8
:0E1213007F027E001211AB7FDC7E0502000719
:071238007FC07E000211AB34
:100D7D00C290D291D292D293209409120003309452
:100D8D00FD7F37222095091200033095FD7F382213
:100D9D002096091200033096FD7F39222097091203
:100DAD0000033097FD7F2F22D290C291D292D29321
:100DBD002094091200033094FD7F342220950912EE
:100DCD0000033095FD7F35222096091200033096E1
:100DDD00FD7F36222097091200033097FD7F782280
:100DED00D290D291C292D2932094091200033094E2
:100DFD00FD7F31222095091200033095FD7F3222AF
:100E0D002096091200033096FD7F33222097091298
:100E1D0000033097FD7F2D22D290D291D292C293B2
:100E2D002094091200033094FD7F4322209509126E
:100E3D0000033095FD7F3022209609120003309675
:100E4D00FD7F3D222097091200033097FD7F2B2255
:030E5D007F6E2283
:0A122D007F6EBF6E05120D7D80F884
:011237002294
:10117600AB07AA061211A7AE02AF03EB700CEE7016
:0B118600097BFF7A0479C81210B62222
:0C122100758920759850758DFDD28E22C5
:071204007F0D12120B7F0A9F
:08120B008F993099FDC2992270
:1011E4003098FDC2988599993099FDC299AF99229A
:030023000210F7D1
:0910F700C0E0C0D075D000C007B4
:10110000309804AF99C2980518E51870020517EFDA
:0C11100024D07006751500751601C298F9
:07111C00D007D0D0D0E03273
:10114D007BFF7A0479D412101F1212047BFF7A04EC
:10115D0079EA1210B61212137F307E751200071243
:09116D0000077F017E000211ABB6
:1011F400EF700CEE70097BFF7A0479F51210B622B9
:10077500751900751A0D1211A7D3E51A94FFE5191D
:100785006480947F40047F0180027F00C3E51A9452
:1007950007E5196480948050047E0180027E00EE96
:1007A5005F6003020890E58B75F00684AFF075195C
:1007B500008F1AE51A6401451970047F0180027FD4
:1007C50000E50CB401047E0180027E00EE5F600648
:1007D500751900751A06E51A6402451970047F013A
:1007E50080027F00E50DB401047E0180027E00EEEB
:1007F5005F6006751900751A04E51A6403451970DA
:10080500047F0180027F00E50EB401047E018002B1
:100815007E00EE5F6006751900751A05E51A640419
:10082500451970047F0180027F00E50FB401047E45
:100835000180027E00EE5F6006751900751A06E5F7
:100845001A6405451970047F0180027F00E510B424
:1008550001047E0180027E00EE5F60067519007559
:100865001A02E51A6406451970047F0180027F00AB
:10087500E511B401047E0180027E00EE5F70030283
:10088500077E751900751A0302077EE519600302D4
:1008950009BAE51A24FE604914607314700302094D
:1008A5003F1470030209681470030209912405605E
:1008B500030209BA750C017BFF7A0579021210B69D
:1008C5001212387BFF7A0579121210B6121213E54F
:1008D50012643160030209BA7BFF7A0579210209A6
:1008E500B7750D017BFF7A05795A1210B6121238C9
:1008F5007BFF7A05796B1210B6121213E51264317B
:1009050060030209BA7BFF7A05797A0209B7750E89
:10091500017BFF7A0579B41210B61212387BFF7A83
:100925000579C51210B6121213E51264316003027F
:1009350009BA7BFF7A0579D38078750F017BFF7A39
:100945000679091210B61212387BFF7A06791B1246
:1009550010B6121213E5126431705A7BFF7A0679CC
:100965002A804F7510017BFF7A0679621210B61244
:1009750012387BFF7A0679741210B6121213E5123B
:10098500643170317BFF7A06798680267511017B8B
:10099500FF7A0679C11210B61212387BFF7A0679F2
:1009A500D21210B6121213E512B431097BFF7A0682
:0B09B50079E312101F851913851A1436
:0109C0002214
:100026007F65751961E4F515F516E51224CF6005AF
:1000360004704C802CE516451570047E0180027E06
:1000460000EF643060047D0180027D00ED5E600596
:10005600120D7D80E0BF300E7519611211A71210C6
:10006600B012122D8019E516640145157011751927
:1000760062F515F516121019C2AC1211E4D2ACE5F0
:1000860012B431047E0180027E00E519B462047D5B
:100096000180027D00ED5E700302022BE51464010F
:1000A600451370047E0180027E00BF32047D01800C
:1000B600027D00EE5D60030203CEE5146402451383
:1000C60070047E0180027E00BF33047D0180027DC4
:1000D60000EE5D60030203CEE5146403451370046D
:1000E6007E0180027E00BF33047D0180027D00EE2A
:1000F6005D60030203CEE5146404451370047E01BB
:1001060080027E00BF31047D0180027D00EE5D60CD
:10011600030203CEE5146405451370047E018002D4
:100126007E00BF34047D0180027D00EE5D60030227
:1001360003CEE5146406451370047E0180027E003A
:10014600BF33047D0180027D00EE5D60030203CEB5
:1001560074FD250BF50B74FF350AF50A7BFF7A074C
:10016600792512101F1211A71210B012122DE514C4
:100176006401451370047E0180027E00BF32047D57
:100186000180027D00EE5D6003020472E5146402E4
:10019600451370047E0180027E00BF33047D01801A
:1001A600027D00EE5D6003020472E51464034513EC
:1001B60070047E0180027E00BF33047D0180027DD3
:1001C60000EE5D6003020472E514640445137004D6
:1001D6007E0180027E00BF31047D0180027D00EE3B
:1001E6005D6003020472E5146405451370047E0124
:1001F60080027E00BF34047D0180027D00EE5D60DA
:1002060003020472E5146406451370047E0180023D
:100216007E00BF33047D0180027D00EE5D70030227
:1002260004AB020472E512B431047E0180027E0042
:10023600E519B461047D0180027D00ED5E70030264
:1002460003DAE5146401451370047E0180027E0022
:10025600BF32047D0180027D00EE5D600302047200
:10026600E5146402451370047E0180027E00BF33EC
:10027600047D0180027D00EE5D6003020472E514D8
:100286006403451370047E0180027E00BF33047D43
:100296000180027D00EE5D6003020472E5146404D1
:1002A600451370047E0180027E00BF31047D01800B
:1002B600027D00EE5D6003020472E51464054513D9
:1002C60070047E0180027E00BF34047D0180027DC1
:1002D60000EE5D6003020472E514640645137004C3
:1002E6007E0180027E00BF33047D0180027D00EE28
:1002F6005D600302047274FD2509F50974FF350873
:10030600F5081212387BFF7A0779321210B61210EE
:1003160019C2AC1211E4D2ACE514640145137004A1
:100326007E0180027E00BF32047D0180027D00EEE8
:100336005D60030203CEE5146402451370047E017A
:1003460080027E00BF33047D0180027D00EE5D6089
:10035600028075E5146403451370047E0180027EF5
:1003660000BF33047D0180027D00EE5D600280588F
:10037600E5146404451370047E0180027E00BF31DB
:10038600047D0180027D00EE5D6002803BE5146421
:1003960005451370047E0180027E00BF34047D0192
:1003A60080027D00EE5D6002801EE5146406451342
:1003B60070047E0180027E00BF33047D0180027DD1
:1003C60000EE5D70030204AB7405250BF50BE435F6
:1003D6000AF50A22E512643060030204ABE51464F0
:1003E60001451370047E0180027E00BF32047D0148
:1003F60080027D00EE5D60028072E51464024513A2
:1004060070047E0180027E00BF33047D0180027D80
:1004160000EE5D60028055E5146403451370047EAA
:100426000180027E00BF33047D0180027D00EE5D07
:1004360060028038E5146404451370047E0180026E
:100446007E00BF31047D0180027D00EE5D6002808A
:100456001BE5146405451370047E0180027E00BF0F
:1004660034047D0180027D00EE5D60097405250976
:10047600F509E4802CE5146406451370047E0180BA
:10048600027E00BF33047F0180027F00EE5F6009B9
:1004960074052509F509E4800874FE2509F5097433
:0504A600FF3508F50818
:0104AB00222E
:100E60001211A77BFF7A07793F1210B6121238AF22
:100E700009AE08120C807BFF7A07794B1210B6126C
:100E800012131212047BFF7A07794F12101FAF0959
:100E9000AE08120B807BFF7A07794B12101F1212DB
:100EA00004E512643170511212047BFF7A07795CF9
:100EB00012101FAF0BAE0A120B807BFF7A07794B23
:100EC00012101F1212047F307E75120007120007E5
:100ED0001200071200071211A77BFF7A0779691227
:100EE00010B6121238AF0BAE0A120C807BFF7A07D5
:100EF000794B1210B6121213E4F517F518120D7D86
:100F0000BF6E047F0180027F00E518451770047EE4
:0A0F10000180027E00EF5E70E42213
:100C8000AB07AA067F201211D2AE02EB8EF0120F34
:100C9000D30D2900000D2B00010D2D00020D2F009A
:100CA000030D3100040D3300050D3500060D39002C
:100CB000070D3D00080D4100090D45000A0D4E00CD
:100CC0000B0D57000C0D60000D0D69000E0D72002C
:100CD0000F0CF9FFF70D00FFF80D07FFF90D0EFFE0
:100CE000FA0D15FFFB0D19FFFC0D1DFFFD0D21FF7A
:100CF000FE0D25FFFF00000D7C7F2D1211D28041DB
:100D00007F2D1211D280367F2D1211D2802B7F2D94
:100D10001211D280207F2D805B7F2D804E7F2D8011
:100D2000417F2D80347F2D8027801F8026802D805D
:100D300034803B80427F3680407F37803C7F3880E4
:100D4000387F3980347F311211D27F30802B7F3150
:100D50001211D27F3180227F311211D27F3280195D
:100D60007F311211D27F3380107F311211D27F3444
:0D0D700080077F311211D27F351211D2227F
:100B8000EF8EF0120FD30C2400000C2800010C2C67
:100B900000020C3000030C3400040C3800050C3C3F
:100BA00000060C4000070C4400080C4800090C4CDF
:100BB000000A0C54000B0C5B000C0C63000D0C6C59
:100BC000000E0C75000F0BEEFFF70BF5FFF80BFC9A
:100BD000FFF90C03FFFA0C0AFFFB0C0EFFFC0C12D2
:100BE000FFFD0C16FFFE0C1DFFFF00000C7F7F2D8C
:100BF00012120B80537F2D12120B80487F2D121280
:100C00000B803D7F2D12120B80327F2D80697F2D4E
:100C1000805C7F2D804F7F2D12120B800F7F2D1255
:100C2000120B80047F3080547F3180507F32804CA3
:100C30007F3380487F3480447F3580407F36803CDE
:100C40007F3780387F3880347F3980307F3112128F
:100C50000B1F80287F3112120B80217F3112120B63
:100C60000F80197F3112120B7F3380107F311212E7
:100C70000B7F3480077F3112120B7F3512120B224B
:03000000020F1AD2
:0C0F1A00787FE4F6D8FD75811F020F619E
:100FA600BB010CE58229F582E5833AF583E0225000
:100FB60006E92582F8E622BBFE06E92582F8E2224A
:0D0FC600E58229F582E5833AF583E4932264
:100FD300D083D082F8E4937012740193700DA3A3AD
:100FE30093F8740193F5828883E473740293B5F0E4
:0D0FF300067403936860E9A3A3A3A380D84C
:1011BD00E4FFFE121000600C0FEF70010E09E970D4
:0511CD00F20A80EF2290
:100F26000209C1E493A3F8E493A34003F68001F217
:100F360008DFF48029E493A3F85407240CC8C333CC
:100F4600C4540F4420C8834004F456800146F6DF9B
:100F5600E4800B0102040810204080901123E47EF7
:100F6600019360BCA3FF543F30E509541FFEE49390
:100F7600A360010ECF54C025E060A840B8E493A357
:100F8600FAE493A3F8E493A3C8C582C8CAC583CA82
:100F9600F0A3C8C582C8CAC583CADFE9DEE780BE3A
:01114C0000A2
:10100000BB010689828A83E0225002E722BBFE02EE
:09101000E32289828A83E4932221
:00000001FF
