:10043A00C2A0C2A1C2A2C2A3D2A4C2A5C2A6C2A776
:04044A007580FF2298
:10017900E4F50CF50DF50EF50FEFB40800504D90B0
:10018900018FF82828730201A70201AB0201AF020F
:1001990001B30201B70201BF0201C70201CFC2A226
:1001A900800EC2A28012C2A28016C2A2801AD2A256
:1001B900C2A1C2A08016D2A2C2A1D2A0800ED2A290
:1001C900D2A1C2A08006D2A2D2A1D2A07F0A7E006B
:1001D900120421D2A3D2A77F0A7E00120421C2A74A
:1001E900D2A67F0A7E00120421D2A7C2A37F0A7E6B
:1001F90000120421C2A7C2A6E4F50CF50DB2A77F2F
:100209000A7E0012042130A411050DE50D700205C6
:100219000CC394D0E50C940740E3E4F50CF50DB25A
:10022900A77F0A7E0012042120A411050DE50D7097
:1002390002050CC394D0E50C940740E3C2A7D2A5EC
:100249007F0A7E00120421D2A77F0A7E00120421B0
:10025900C2A77F0A7E00120421D2A7AF80750E00C3
:100269008F0F7F0A7E00120421C2A5C2A77F0A7ED2
:0602790000120421AF0F8A
:01027F00225C
:1003CF005374617274696E672E2E2E004144432060
:0C03DF0076616C7565203D200000000078
:10028000E4F50878097C00FD7BFF7A0379E8FE7FBE
:10029000031200D312043A1203107BFF7A0379CFC2
:1002A00012038B7F017E0012035C12044E7F011249
:1002B00001798F08E50875F06484F50B75F00AA4E0
:1002C000FFE50875F00A84C39FF50AE50B75F06435
:1002D000A4FFC3E5089FFFE50A75F00AA4FEC3EF7B
:1002E0009EF50912044E7BFF7A0379DB12038BE53E
:1002F0000B2430FF120406E50A2430FF120406E541
:10030000092430FF1204067F017E0012035C809DE9
:04035C008E0C8F0D67
:10036000E4F50EF50FAE0CAF0D7C007D14120112FA
:10037000C3E50F9FE50E9E50117F507EC3120421EE
:0A038000050FE50F70DF050E80DBAE
:01038A002250
:100421007C007D0F120124E4FDFCC3ED9FEC9E5086
:08043100070DBD00010C80F273
:0104390022A0
:0903EB0012042153900F439030DD
:1003F400D2907FFA7E00120421C2907FFA7E00021E
:020404000421D1
:10040600AB07D29153900FEB54F042901203F45382
:0B041600900FEBC454F042900203F47E
:1003B000AB07AA06C29153900FEB54F04290120380
:0F03C000F453900FAF03EFC454F042900203F4D4
:10031000C291C2907F987E3A1203EB7F947E1112B5
:1003200003EB7F2C7E011203EB7F8A7E02120421F5
:1003300053900F4390201203F47F8A7E021204210F
:100340007F287E001203B07F0C7E001203B07F0175
:0C0350007E001203B07F067E000203B0A6
:10038B008B0C8A0D890EAB0CAA0DA90E1200F9600D
:10039B0013050EE50E7002050D14F91200F9FF128C
:0503AB00040680E222BF
:0E044E007F017E001203B07FD07E07020421E2
:0300000002045C9B
:0C045C00787FE4F6D8FD75810F02028065
:10000300E709F608DFFA8046E709F208DFFA803EDF
:1000130088828C83E709F0A3DFFA8032E309F608CC
:10002300DFFA8078E309F208DFFA807088828C8334
:10003300E309F0A3DFFA806489828A83E0A3F608E8
:10004300DFFA805889828A83E0A3F208DFFA804CC2
:1000530080D280FA80C680D4806980F28033801099
:1000630080A680EA809A80A880DA80E280CA803302
:1000730089828A83ECFAE493A3C8C582C8CCC5837A
:10008300CCF0A3C8C582C8CCC583CCDFE9DEE7804A
:100093000D89828A83E493A3F608DFF9ECFAA9F0C9
:1000A300EDFB2289828A83ECFAE0A3C8C582C8CC1F
:1000B300C583CCF0A3C8C582C8CCC583CCDFEADE38
:1000C300E880DB89828A83E493A3F208DFF980CC9A
:1000D30088F0EF60010E4E60C388F0ED2402B40493
:1000E3000050B9F582EB2402B4040050AF2323453A
:0600F3008223900053730C
:1000F900BB010689828A83E0225002E722BBFE0205
:09010900E32289828A83E4932237
:10011200EF8DF0A4A8F0CF8CF0A428CE8DF0A42E01
:02012200FE22BB
:10012400BC000BBE0029EF8DF084FFADF022E4CCBF
:10013400F875F008EF2FFFEE33FEEC33FCEE9DEC88
:10014400984005FCEE9DFE0FD5F0E9E4CEFD22EDCE
:10015400F8F5F0EE8420D21CFEADF075F008EF2F18
:10016400FFED33FD4007985006D5F0F222C398FD09
:050174000FD5F0EA22A6
:00000001FF
