:04021500E4F5A0224A
:100198007C007D19120138E47B05FAF9F81200A6F3
:1001A8008F0B8E0A8D098C08E47B62FAF9F812002D
:0B01B800A68F0B8E0A8D098C088FA00B
:0101C3002219
:1001C400E4F580F590F5A0F5B01202157FE87E0302
:1001D4001201981201657FD07E0712019812016501
:0C01E4007FB87E0B12019812016580E0CC
:040165007F027E0097
:040169008E088F0964
:10016D00E4F50AF50BAE08AF097C007D141200030F
:10017D00C3E50B9FE50A9E50117F507EC31201F01F
:0A018D00050BE50B70DF050A80DBAF
:010197002245
:1001F0007C007D0F120015E4FDFCC3ED9FEC9E50CA
:08020000070DBD00010C80F2A6
:0102080022D3
:03000000020209F0
:0C020900787FE4F6D8FD75810B0201C47B
:10000300EF8DF0A4A8F0CF8CF0A428CE8DF0A42E11
:02001300FE22CB
:10001500BC000BBE0029EF8DF084FFADF022E4CCCF
:10002500F875F008EF2FFFEE33FEEC33FCEE9DEC98
:10003500984005FCEE9DFE0FD5F0E9E4CEFD22EDDE
:10004500F8F5F0EE8420D21CFEADF075F008EF2F28
:10005500FFED33FD4007985006D5F0F222C398FD19
:050065000FD5F0EA22B6
:10006A0075F008758200EF2FFFEE33FECD33CDCC4D
:10007A0033CCC58233C5829BED9AEC99E5829840D0
:10008A000CF582EE9BFEED9AFDEC99FC0FD5F0D6AD
:10009A00E4CEFBE4CDFAE4CCF9A88222B800C1B9D7
:1000AA000059BA002DEC8BF084CFCECDFCE5F0CB15
:1000BA00F97818EF2FFFEE33FEED33FDEC33FCEB4E
:1000CA0033FB10D703994004EB99FB0FD8E5E4F909
:1000DA00FA227818EF2FFFEE33FEED33FDEC33FCF6
:1000EA00C933C910D7059BE99A4007EC9BFCE99AEA
:1000FA00F90FD8E0E4C9FAE4CCFB2275F010EF2F2F
:10010A00FFEE33FEED33FDCC33CCC833C810D7072E
:10011A009BEC9AE899400AED9BFDEC9AFCE899F869
:0E012A000FD5F0DAE4CDFBE4CCFAE4C8F922FC
:10013800EC8EF0A4CCC5F0CCCDF8EFA4CEC5F02D54
:10014800FDE43CFCE8A42EC8C5F03DFDE43CFCEF12
:0D015800A4FFE5F028FEE43DFDE43CFC22A0
:00000001FF
