:1000A2001201A31200037F481201277F6512012764
:1000B2007F6C1201277F6C1201277F6F1201277F4D
:1000C200201201277F571201277F6F1201277F72AB
:1000D2001201277F6C1201277F641201277F2112F0
:0700E200012712018980FED5
:0A01A300E4F580F590F5A0F5B02218
:100127008F08D2A253A00FE50854F042A0D2A37FB4
:10013700967E001201ADC2A37F967E001201AD53D9
:10014700A00FE508C454F042A0D2A37F967E001208
:0B01570001ADC2A37F967E000201AD47
:1000E9008E088F09C2A253A00FE50954F042A0D28D
:1000F900A37F967E001201ADC2A37F967E001201F6
:10010900AD53A00FAF09EFC454F042A0D2A37F961C
:0E0119007E001201ADC2A37F967E000201ADF2
:100003007F987E3A1201AD53A00F43A030D2A37F55
:10001300967E001201ADC2A37F967E001201AD7FD2
:10002300947E111201AD53A00F43A030D2A37F964B
:100033007E001201ADC2A37F967E001201AD7F2C1C
:100043007E011201AD53A00F43A030D2A37F967E51
:10005300001201ADC2A37F967E001201AD7F8A7E9E
:10006300021201AD53A00F43A020D2A37F967E00BE
:100073001201ADC2A37F967E001201AD7F8A7E027C
:100083001201AD7F287E001200E97F0C7E00120072
:0F009300E97F017E001200E97F067E000200E98E
:0E0189007F027E001200E97FDC7E050201ADE0
:0A01AD00EF1F70011EEF4E70F722E5
:10016200AD07AC06ED4C600E7F707E001201ADED66
:070172001D70F11C80EE225C
:10017900AB07EB600A7FE87E031201621B80F32262
:0300000002019763
:0C019700787FE4F6D8FD7581090200A213
:00000001FF
