:0C0003001200FD12000FD2AFD2AC80FE44
:0B00FD00E4F580F590F5A075B003223B
:0C000F00758920759850758DFDD28E22E9
:08001B008F993099FDC2992272
:03002300020026B2
:0F002600C0E0C083C082C0D075D000C000C0074A
:10003500309805859908C2986380FFE5081200CBC2
:10004500007931007D320081330085340089350027
:100055008D36009137009538009961009D6200A1A9
:100065006300A56400A96500AD6600B16700B568C9
:10007500000000BCD290803AD2918036D292803274
:10008500D293802ED294802AD2958026D296802231
:10009500D297801EC290801AC2918016C292801299
:1000A500C293800EC294800AC2958006C2968002D1
:0900B500C2977F6B12001BC29878
:0D00BE00D007D000D0D0D082D083D0E03267
:030000000200F10A
:0C00F100787FE4F6D8FD7581080200035A
:1000CB00D083D082F8E4937012740193700DA3A3C4
:1000DB0093F8740193F5828883E4737402936860D8
:0600EB00EFA3A3A380DFD8
:00000001FF
